{"abi":[{"type":"constructor","inputs":[{"name":"_entranceFee","type":"uint256","internalType":"uint256"},{"name":"_feeAddress","type":"address","internalType":"address"},{"name":"_raffleDuration","type":"uint256","internalType":"uint256"}],"stateMutability":"nonpayable"},{"type":"function","name":"COMMON_RARITY","inputs":[],"outputs":[{"name":"","type":"uint256","internalType":"uint256"}],"stateMutability":"view"},{"type":"function","name":"LEGENDARY_RARITY","inputs":[],"outputs":[{"name":"","type":"uint256","internalType":"uint256"}],"stateMutability":"view"},{"type":"function","name":"RARE_RARITY","inputs":[],"outputs":[{"name":"","type":"uint256","internalType":"uint256"}],"stateMutability":"view"},{"type":"function","name":"approve","inputs":[{"name":"to","type":"address","internalType":"address"},{"name":"tokenId","type":"uint256","internalType":"uint256"}],"outputs":[],"stateMutability":"nonpayable"},{"type":"function","name":"balanceOf","inputs":[{"name":"owner","type":"address","internalType":"address"}],"outputs":[{"name":"","type":"uint256","internalType":"uint256"}],"stateMutability":"view"},{"type":"function","name":"baseURI","inputs":[],"outputs":[{"name":"","type":"string","internalType":"string"}],"stateMutability":"view"},{"type":"function","name":"changeFeeAddress","inputs":[{"name":"newFeeAddress","type":"address","internalType":"address"}],"outputs":[],"stateMutability":"nonpayable"},{"type":"function","name":"enterRaffle","inputs":[{"name":"newPlayers","type":"address[]","internalType":"address[]"}],"outputs":[],"stateMutability":"payable"},{"type":"function","name":"entranceFee","inputs":[],"outputs":[{"name":"","type":"uint256","internalType":"uint256"}],"stateMutability":"view"},{"type":"function","name":"feeAddress","inputs":[],"outputs":[{"name":"","type":"address","internalType":"address"}],"stateMutability":"view"},{"type":"function","name":"getActivePlayerIndex","inputs":[{"name":"player","type":"address","internalType":"address"}],"outputs":[{"name":"","type":"uint256","internalType":"uint256"}],"stateMutability":"view"},{"type":"function","name":"getApproved","inputs":[{"name":"tokenId","type":"uint256","internalType":"uint256"}],"outputs":[{"name":"","type":"address","internalType":"address"}],"stateMutability":"view"},{"type":"function","name":"isApprovedForAll","inputs":[{"name":"owner","type":"address","internalType":"address"},{"name":"operator","type":"address","internalType":"address"}],"outputs":[{"name":"","type":"bool","internalType":"bool"}],"stateMutability":"view"},{"type":"function","name":"name","inputs":[],"outputs":[{"name":"","type":"string","internalType":"string"}],"stateMutability":"view"},{"type":"function","name":"owner","inputs":[],"outputs":[{"name":"","type":"address","internalType":"address"}],"stateMutability":"view"},{"type":"function","name":"ownerOf","inputs":[{"name":"tokenId","type":"uint256","internalType":"uint256"}],"outputs":[{"name":"","type":"address","internalType":"address"}],"stateMutability":"view"},{"type":"function","name":"players","inputs":[{"name":"","type":"uint256","internalType":"uint256"}],"outputs":[{"name":"","type":"address","internalType":"address"}],"stateMutability":"view"},{"type":"function","name":"previousWinner","inputs":[],"outputs":[{"name":"","type":"address","internalType":"address"}],"stateMutability":"view"},{"type":"function","name":"raffleDuration","inputs":[],"outputs":[{"name":"","type":"uint256","internalType":"uint256"}],"stateMutability":"view"},{"type":"function","name":"raffleStartTime","inputs":[],"outputs":[{"name":"","type":"uint256","internalType":"uint256"}],"stateMutability":"view"},{"type":"function","name":"rarityToName","inputs":[{"name":"","type":"uint256","internalType":"uint256"}],"outputs":[{"name":"","type":"string","internalType":"string"}],"stateMutability":"view"},{"type":"function","name":"rarityToUri","inputs":[{"name":"","type":"uint256","internalType":"uint256"}],"outputs":[{"name":"","type":"string","internalType":"string"}],"stateMutability":"view"},{"type":"function","name":"refund","inputs":[{"name":"playerIndex","type":"uint256","internalType":"uint256"}],"outputs":[],"stateMutability":"nonpayable"},{"type":"function","name":"renounceOwnership","inputs":[],"outputs":[],"stateMutability":"nonpayable"},{"type":"function","name":"safeTransferFrom","inputs":[{"name":"from","type":"address","internalType":"address"},{"name":"to","type":"address","internalType":"address"},{"name":"tokenId","type":"uint256","internalType":"uint256"}],"outputs":[],"stateMutability":"nonpayable"},{"type":"function","name":"safeTransferFrom","inputs":[{"name":"from","type":"address","internalType":"address"},{"name":"to","type":"address","internalType":"address"},{"name":"tokenId","type":"uint256","internalType":"uint256"},{"name":"_data","type":"bytes","internalType":"bytes"}],"outputs":[],"stateMutability":"nonpayable"},{"type":"function","name":"selectWinner","inputs":[],"outputs":[],"stateMutability":"nonpayable"},{"type":"function","name":"setApprovalForAll","inputs":[{"name":"operator","type":"address","internalType":"address"},{"name":"approved","type":"bool","internalType":"bool"}],"outputs":[],"stateMutability":"nonpayable"},{"type":"function","name":"supportsInterface","inputs":[{"name":"interfaceId","type":"bytes4","internalType":"bytes4"}],"outputs":[{"name":"","type":"bool","internalType":"bool"}],"stateMutability":"view"},{"type":"function","name":"symbol","inputs":[],"outputs":[{"name":"","type":"string","internalType":"string"}],"stateMutability":"view"},{"type":"function","name":"tokenByIndex","inputs":[{"name":"index","type":"uint256","internalType":"uint256"}],"outputs":[{"name":"","type":"uint256","internalType":"uint256"}],"stateMutability":"view"},{"type":"function","name":"tokenIdToRarity","inputs":[{"name":"","type":"uint256","internalType":"uint256"}],"outputs":[{"name":"","type":"uint256","internalType":"uint256"}],"stateMutability":"view"},{"type":"function","name":"tokenOfOwnerByIndex","inputs":[{"name":"owner","type":"address","internalType":"address"},{"name":"index","type":"uint256","internalType":"uint256"}],"outputs":[{"name":"","type":"uint256","internalType":"uint256"}],"stateMutability":"view"},{"type":"function","name":"tokenURI","inputs":[{"name":"tokenId","type":"uint256","internalType":"uint256"}],"outputs":[{"name":"","type":"string","internalType":"string"}],"stateMutability":"view"},{"type":"function","name":"totalFees","inputs":[],"outputs":[{"name":"","type":"uint64","internalType":"uint64"}],"stateMutability":"view"},{"type":"function","name":"totalSupply","inputs":[],"outputs":[{"name":"","type":"uint256","internalType":"uint256"}],"stateMutability":"view"},{"type":"function","name":"transferFrom","inputs":[{"name":"from","type":"address","internalType":"address"},{"name":"to","type":"address","internalType":"address"},{"name":"tokenId","type":"uint256","internalType":"uint256"}],"outputs":[],"stateMutability":"nonpayable"},{"type":"function","name":"transferOwnership","inputs":[{"name":"newOwner","type":"address","internalType":"address"}],"outputs":[],"stateMutability":"nonpayable"},{"type":"function","name":"withdrawFees","inputs":[],"outputs":[],"stateMutability":"nonpayable"},{"type":"event","name":"Approval","inputs":[{"name":"owner","type":"address","indexed":true,"internalType":"address"},{"name":"approved","type":"address","indexed":true,"internalType":"address"},{"name":"tokenId","type":"uint256","indexed":true,"internalType":"uint256"}],"anonymous":false},{"type":"event","name":"ApprovalForAll","inputs":[{"name":"owner","type":"address","indexed":true,"internalType":"address"},{"name":"operator","type":"address","indexed":true,"internalType":"address"},{"name":"approved","type":"bool","indexed":false,"internalType":"bool"}],"anonymous":false},{"type":"event","name":"FeeAddressChanged","inputs":[{"name":"newFeeAddress","type":"address","indexed":false,"internalType":"address"}],"anonymous":false},{"type":"event","name":"OwnershipTransferred","inputs":[{"name":"previousOwner","type":"address","indexed":true,"internalType":"address"},{"name":"newOwner","type":"address","indexed":true,"internalType":"address"}],"anonymous":false},{"type":"event","name":"RaffleEnter","inputs":[{"name":"newPlayers","type":"address[]","indexed":false,"internalType":"address[]"}],"anonymous":false},{"type":"event","name":"RaffleRefunded","inputs":[{"name":"player","type":"address","indexed":false,"internalType":"address"}],"anonymous":false},{"type":"event","name":"Transfer","inputs":[{"name":"from","type":"address","indexed":true,"internalType":"address"},{"name":"to","type":"address","indexed":true,"internalType":"address"},{"name":"tokenId","type":"uint256","indexed":true,"internalType":"uint256"}],"anonymous":false}],"bytecode":{"object":"0x60a06040526000600f60146101000a81548167ffffffffffffffff021916908367ffffffffffffffff160217905550604051806060016040528060358152602001620051b860359139601390805190602001906200005f92919062000606565b50604051806060016040528060358152602001620051ed60359139601490805190602001906200009192919062000606565b50604051806060016040528060358152602001620051836035913960159080519060200190620000c392919062000606565b50348015620000d157600080fd5b50604051620052223803806200522283398181016040526060811015620000f757600080fd5b810190808051906020019092919080519060200190929190805190602001909291905050506040518060400160405280600c81526020017f507570707920526166666c6500000000000000000000000000000000000000008152506040518060400160405280600281526020017f5052000000000000000000000000000000000000000000000000000000000000815250620001a06301ffc9a760e01b620004f560201b60201c565b8160069080519060200190620001b892919062000606565b508060079080519060200190620001d192919062000606565b50620001ea6380ac58cd60e01b620004f560201b60201c565b62000202635b5e139f60e01b620004f560201b60201c565b6200021a63780e9d6360e01b620004f560201b60201c565b505060006200022e620005fe60201b60201c565b905080600a60006101000a81548173ffffffffffffffffffffffffffffffffffffffff021916908373ffffffffffffffffffffffffffffffffffffffff1602179055508073ffffffffffffffffffffffffffffffffffffffff16600073ffffffffffffffffffffffffffffffffffffffff167f8be0079c531659141344cd1fd0a4f28419497f9722a3daafe3b4186f6b6457e060405160405180910390a350826080818152505081600f60006101000a81548173ffffffffffffffffffffffffffffffffffffffff021916908373ffffffffffffffffffffffffffffffffffffffff16021790555080600c8190555042600d819055506013601160006046815260200190815260200160002090805460018160011615610100020316600290046200035b9291906200069d565b50601460116000601981526020019081526020016000209080546001816001161561010002031660029004620003939291906200069d565b50601560116000600581526020019081526020016000209080546001816001161561010002031660029004620003cb9291906200069d565b506040518060400160405280600681526020017f636f6d6d6f6e0000000000000000000000000000000000000000000000000000815250601260006046815260200190815260200160002090805190602001906200042b92919062000606565b506040518060400160405280600481526020017f7261726500000000000000000000000000000000000000000000000000000000815250601260006019815260200190815260200160002090805190602001906200048b92919062000606565b506040518060400160405280600981526020017f6c6567656e64617279000000000000000000000000000000000000000000000081525060126000600581526020019081526020016000209080519060200190620004eb92919062000606565b505050506200075a565b63ffffffff60e01b817bffffffffffffffffffffffffffffffffffffffffffffffffffffffff1916141562000592576040517f08c379a000000000000000000000000000000000000000000000000000000000815260040180806020018281038252601c8152602001807f4552433136353a20696e76616c696420696e746572666163652069640000000081525060200191505060405180910390fd5b6001600080837bffffffffffffffffffffffffffffffffffffffffffffffffffffffff19167bffffffffffffffffffffffffffffffffffffffffffffffffffffffff1916815260200190815260200160002060006101000a81548160ff02191690831515021790555050565b600033905090565b828054600181600116156101000203166002900490600052602060002090601f0160209004810192826200063e57600085556200068a565b82601f106200065957805160ff19168380011785556200068a565b828001600101855582156200068a579182015b82811115620006895782518255916020019190600101906200066c565b5b5090506200069991906200073b565b5090565b828054600181600116156101000203166002900490600052602060002090601f016020900481019282620006d5576000855562000728565b82601f10620006e8578054855562000728565b828001600101855582156200072857600052602060002091601f016020900482015b82811115620007275782548255916001019190600101906200070a565b5b5090506200073791906200073b565b5090565b5b80821115620007565760008160009055506001016200073c565b5090565b6080516149ff620007846000398061159152806119985280611f475280612b2052506149ff6000f3fe6080604052600436106102305760003560e01c8063649677e11161012e578063b88d4fde116100ab578063db2cea751161006f578063db2cea7514610e63578063e1a0f7e714610ec8578063e985e9c514610f80578063f2fde38b14611007578063f71d96cb1461105857610230565b8063b88d4fde14610c1c578063bd71a52114610d2e578063bd7c40c714610d59578063c87b56dd14610d84578063db2c0b9114610e3857610230565b80638da5cb5b116100f25780638da5cb5b14610a0f57806395d89b4114610a50578063970c76e114610ae0578063a22cb46514610b94578063b2f8846b14610bf157610230565b8063649677e1146108895780636be88980146108b45780636c0360eb1461090357806370a0823114610993578063715018a6146109f857610230565b80632f745c59116101bc578063476343ee11610180578063476343ee146106c95780634a038beb146106e05780634f6ccce7146107945780635c6059ee146107e35780636352211e1461082457610230565b80632f745c591461055c57806333a99e04146105cb5780633be539ee146105e2578063412753581461060d57806342842e0e1461064e57610230565b806313114a9d1161020357806313114a9d146103f557806318160ddd1461042a57806323b872dd14610455578063278ecde1146104d0578063285e14061461050b57610230565b806301ffc9a71461023557806306fdde03146102a5578063081812fc14610335578063095ea7b31461039a575b600080fd5b34801561024157600080fd5b5061028d6004803603602081101561025857600080fd5b8101908080357bffffffffffffffffffffffffffffffffffffffffffffffffffffffff191690602001909291905050506110bd565b60405180821515815260200191505060405180910390f35b3480156102b157600080fd5b506102ba611124565b6040518080602001828103825283818151815260200191508051906020019080838360005b838110156102fa5780820151818401526020810190506102df565b50505050905090810190601f1680156103275780820380516001836020036101000a031916815260200191505b509250505060405180910390f35b34801561034157600080fd5b5061036e6004803603602081101561035857600080fd5b81019080803590602001909291905050506111c6565b604051808273ffffffffffffffffffffffffffffffffffffffff16815260200191505060405180910390f35b3480156103a657600080fd5b506103f3600480360360408110156103bd57600080fd5b81019080803573ffffffffffffffffffffffffffffffffffffffff16906020019092919080359060200190929190505050611261565b005b34801561040157600080fd5b5061040a6113a5565b604051808267ffffffffffffffff16815260200191505060405180910390f35b34801561043657600080fd5b5061043f6113bf565b6040518082815260200191505060405180910390f35b34801561046157600080fd5b506104ce6004803603606081101561047857600080fd5b81019080803573ffffffffffffffffffffffffffffffffffffffff169060200190929190803573ffffffffffffffffffffffffffffffffffffffff169060200190929190803590602001909291905050506113d0565b005b3480156104dc57600080fd5b50610509600480360360208110156104f357600080fd5b8101908080359060200190929190505050611446565b005b34801561051757600080fd5b5061055a6004803603602081101561052e57600080fd5b81019080803573ffffffffffffffffffffffffffffffffffffffff16906020019092919050505061167d565b005b34801561056857600080fd5b506105b56004803603604081101561057f57600080fd5b81019080803573ffffffffffffffffffffffffffffffffffffffff169060200190929190803590602001909291905050506117bd565b6040518082815260200191505060405180910390f35b3480156105d757600080fd5b506105e0611818565b005b3480156105ee57600080fd5b506105f7611c1d565b6040518082815260200191505060405180910390f35b34801561061957600080fd5b50610622611c23565b604051808273ffffffffffffffffffffffffffffffffffffffff16815260200191505060405180910390f35b34801561065a57600080fd5b506106c76004803603606081101561067157600080fd5b81019080803573ffffffffffffffffffffffffffffffffffffffff169060200190929190803573ffffffffffffffffffffffffffffffffffffffff16906020019092919080359060200190929190505050611c49565b005b3480156106d557600080fd5b506106de611c69565b005b3480156106ec57600080fd5b506107196004803603602081101561070357600080fd5b8101908080359060200190929190505050611e15565b6040518080602001828103825283818151815260200191508051906020019080838360005b8381101561075957808201518184015260208101905061073e565b50505050905090810190601f1680156107865780820380516001836020036101000a031916815260200191505b509250505060405180910390f35b3480156107a057600080fd5b506107cd600480360360208110156107b757600080fd5b8101908080359060200190929190505050611ec5565b6040518082815260200191505060405180910390f35b3480156107ef57600080fd5b506107f8611ee8565b604051808273ffffffffffffffffffffffffffffffffffffffff16815260200191505060405180910390f35b34801561083057600080fd5b5061085d6004803603602081101561084757600080fd5b8101908080359060200190929190505050611f0e565b604051808273ffffffffffffffffffffffffffffffffffffffff16815260200191505060405180910390f35b34801561089557600080fd5b5061089e611f45565b6040518082815260200191505060405180910390f35b3480156108c057600080fd5b506108ed600480360360208110156108d757600080fd5b8101908080359060200190929190505050611f69565b6040518082815260200191505060405180910390f35b34801561090f57600080fd5b50610918611f81565b6040518080602001828103825283818151815260200191508051906020019080838360005b8381101561095857808201518184015260208101905061093d565b50505050905090810190601f1680156109855780820380516001836020036101000a031916815260200191505b509250505060405180910390f35b34801561099f57600080fd5b506109e2600480360360208110156109b657600080fd5b81019080803573ffffffffffffffffffffffffffffffffffffffff169060200190929190505050612023565b6040518082815260200191505060405180910390f35b348015610a0457600080fd5b50610a0d6120f8565b005b348015610a1b57600080fd5b50610a24612268565b604051808273ffffffffffffffffffffffffffffffffffffffff16815260200191505060405180910390f35b348015610a5c57600080fd5b50610a65612292565b6040518080602001828103825283818151815260200191508051906020019080838360005b83811015610aa5578082015181840152602081019050610a8a565b50505050905090810190601f168015610ad25780820380516001836020036101000a031916815260200191505b509250505060405180910390f35b348015610aec57600080fd5b50610b1960048036036020811015610b0357600080fd5b8101908080359060200190929190505050612334565b6040518080602001828103825283818151815260200191508051906020019080838360005b83811015610b59578082015181840152602081019050610b3e565b50505050905090810190601f168015610b865780820380516001836020036101000a031916815260200191505b509250505060405180910390f35b348015610ba057600080fd5b50610bef60048036036040811015610bb757600080fd5b81019080803573ffffffffffffffffffffffffffffffffffffffff1690602001909291908035151590602001909291905050506123e4565b005b348015610bfd57600080fd5b50610c0661259a565b6040518082815260200191505060405180910390f35b348015610c2857600080fd5b50610d2c60048036036080811015610c3f57600080fd5b81019080803573ffffffffffffffffffffffffffffffffffffffff169060200190929190803573ffffffffffffffffffffffffffffffffffffffff1690602001909291908035906020019092919080359060200190640100000000811115610ca657600080fd5b820183602082011115610cb857600080fd5b80359060200191846001830284011164010000000083111715610cda57600080fd5b91908080601f016020809104026020016040519081016040528093929190818152602001838380828437600081840152601f19601f8201169050808301925050505050505091929192905050506125a0565b005b348015610d3a57600080fd5b50610d43612618565b6040518082815260200191505060405180910390f35b348015610d6557600080fd5b50610d6e61261d565b6040518082815260200191505060405180910390f35b348015610d9057600080fd5b50610dbd60048036036020811015610da757600080fd5b8101908080359060200190929190505050612622565b6040518080602001828103825283818151815260200191508051906020019080838360005b83811015610dfd578082015181840152602081019050610de2565b50505050905090810190601f168015610e2a5780820380516001836020036101000a031916815260200191505b509250505060405180910390f35b348015610e4457600080fd5b50610e4d612a76565b6040518082815260200191505060405180910390f35b348015610e6f57600080fd5b50610eb260048036036020811015610e8657600080fd5b81019080803573ffffffffffffffffffffffffffffffffffffffff169060200190929190505050612a7b565b6040518082815260200191505060405180910390f35b610f7e60048036036020811015610ede57600080fd5b8101908080359060200190640100000000811115610efb57600080fd5b820183602082011115610f0d57600080fd5b80359060200191846020830284011164010000000083111715610f2f57600080fd5b919080806020026020016040519081016040528093929190818152602001838360200280828437600081840152601f19601f820116905080830192505050505050509192919290505050612b1c565b005b348015610f8c57600080fd5b50610fef60048036036040811015610fa357600080fd5b81019080803573ffffffffffffffffffffffffffffffffffffffff169060200190929190803573ffffffffffffffffffffffffffffffffffffffff169060200190929190505050612df7565b60405180821515815260200191505060405180910390f35b34801561101357600080fd5b506110566004803603602081101561102a57600080fd5b81019080803573ffffffffffffffffffffffffffffffffffffffff169060200190929190505050612e8b565b005b34801561106457600080fd5b506110916004803603602081101561107b57600080fd5b8101908080359060200190929190505050613080565b604051808273ffffffffffffffffffffffffffffffffffffffff16815260200191505060405180910390f35b6000806000837bffffffffffffffffffffffffffffffffffffffffffffffffffffffff19167bffffffffffffffffffffffffffffffffffffffffffffffffffffffff1916815260200190815260200160002060009054906101000a900460ff169050919050565b606060068054600181600116156101000203166002900480601f0160208091040260200160405190810160405280929190818152602001828054600181600116156101000203166002900480156111bc5780601f10611191576101008083540402835291602001916111bc565b820191906000526020600020905b81548152906001019060200180831161119f57829003601f168201915b5050505050905090565b60006111d1826130bf565b611226576040517f08c379a000000000000000000000000000000000000000000000000000000000815260040180806020018281038252602c815260200180614841602c913960400191505060405180910390fd5b6004600083815260200190815260200160002060009054906101000a900473ffffffffffffffffffffffffffffffffffffffff169050919050565b600061126c82611f0e565b90508073ffffffffffffffffffffffffffffffffffffffff168373ffffffffffffffffffffffffffffffffffffffff1614156112f3576040517f08c379a00000000000000000000000000000000000000000000000000000000081526004018080602001828103825260218152602001806148cc6021913960400191505060405180910390fd5b8073ffffffffffffffffffffffffffffffffffffffff166113126130dc565b73ffffffffffffffffffffffffffffffffffffffff16148061134157506113408161133b6130dc565b612df7565b5b611396576040517f08c379a00000000000000000000000000000000000000000000000000000000081526004018080602001828103825260388152602001806147246038913960400191505060405180910390fd5b6113a083836130e4565b505050565b600f60149054906101000a900467ffffffffffffffff1681565b60006113cb600261319d565b905090565b6113e16113db6130dc565b826131b2565b611436576040517f08c379a000000000000000000000000000000000000000000000000000000000815260040180806020018281038252603181526020018061491d6031913960400191505060405180910390fd5b6114418383836132a6565b505050565b6000600b828154811061145557fe5b9060005260206000200160009054906101000a900473ffffffffffffffffffffffffffffffffffffffff1690503373ffffffffffffffffffffffffffffffffffffffff168173ffffffffffffffffffffffffffffffffffffffff1614611506576040517f08c379a000000000000000000000000000000000000000000000000000000000815260040180806020018281038252602781526020018061459c6027913960400191505060405180910390fd5b600073ffffffffffffffffffffffffffffffffffffffff168173ffffffffffffffffffffffffffffffffffffffff16141561158c576040517f08c379a000000000000000000000000000000000000000000000000000000000815260040180806020018281038252603681526020018061486d6036913960400191505060405180910390fd5b6115d57f00000000000000000000000000000000000000000000000000000000000000003373ffffffffffffffffffffffffffffffffffffffff166134e990919063ffffffff16565b6000600b83815481106115e457fe5b9060005260206000200160006101000a81548173ffffffffffffffffffffffffffffffffffffffff021916908373ffffffffffffffffffffffffffffffffffffffff1602179055507fcada6d5a24d75e568453894e32683a8a5e6421131f8df496749af47c49a9328781604051808273ffffffffffffffffffffffffffffffffffffffff16815260200191505060405180910390a15050565b6116856130dc565b73ffffffffffffffffffffffffffffffffffffffff166116a3612268565b73ffffffffffffffffffffffffffffffffffffffff161461172c576040517f08c379a00000000000000000000000000000000000000000000000000000000081526004018080602001828103825260208152602001807f4f776e61626c653a2063616c6c6572206973206e6f7420746865206f776e657281525060200191505060405180910390fd5b80600f60006101000a81548173ffffffffffffffffffffffffffffffffffffffff021916908373ffffffffffffffffffffffffffffffffffffffff1602179055507fd1e93c69f2847f79bfa4d71704aaa84a581729b4b1706d922ee42ba1848a45c981604051808273ffffffffffffffffffffffffffffffffffffffff16815260200191505060405180910390a150565b600061181082600160008673ffffffffffffffffffffffffffffffffffffffff1673ffffffffffffffffffffffffffffffffffffffff16815260200190815260200160002061362390919063ffffffff16565b905092915050565b600c54600d5401421015611894576040517f08c379a000000000000000000000000000000000000000000000000000000000815260040180806020018281038252601c8152602001807f5075707079526166666c653a20526166666c65206e6f74206f7665720000000081525060200191505060405180910390fd5b6004600b8054905010156118f3576040517f08c379a000000000000000000000000000000000000000000000000000000000815260040180806020018281038252602481526020018061497f6024913960400191505060405180910390fd5b6000600b80549050334244604051602001808473ffffffffffffffffffffffffffffffffffffffff1660601b815260140183815260200182815260200193505050506040516020818303038152906040528051906020012060001c8161195557fe5b0690506000600b828154811061196757fe5b9060005260206000200160009054906101000a900473ffffffffffffffffffffffffffffffffffffffff16905060007f0000000000000000000000000000000000000000000000000000000000000000600b805490500290506000606460508302816119cf57fe5b0490506000606460148402816119e157fe5b04905080600f60149054906101000a900467ffffffffffffffff1601600f60146101000a81548167ffffffffffffffff021916908367ffffffffffffffff1602179055506000611a2f6113bf565b9050600060643344604051602001808373ffffffffffffffffffffffffffffffffffffffff1660601b8152601401828152602001925050506040516020818303038152906040528051906020012060001c81611a8757fe5b06905060468111611ab05760466010600084815260200190815260200160002081905550611af4565b60196046018111611ad95760196010600084815260200190815260200160002081905550611af3565b600560106000848152602001908152602001600020819055505b5b600b6000611b029190614517565b42600d8190555085600e60006101000a81548173ffffffffffffffffffffffffffffffffffffffff021916908373ffffffffffffffffffffffffffffffffffffffff16021790555060008673ffffffffffffffffffffffffffffffffffffffff168560405180600001905060006040518083038185875af1925050503d8060008114611baa576040519150601f19603f3d011682016040523d82523d6000602084013e611baf565b606091505b5050905080611c09576040517f08c379a00000000000000000000000000000000000000000000000000000000081526004018080602001828103825260308152602001806148ed6030913960400191505060405180910390fd5b611c13878461363d565b5050505050505050565b600d5481565b600f60009054906101000a900473ffffffffffffffffffffffffffffffffffffffff1681565b611c64838383604051806020016040528060008152506125a0565b505050565b600f60149054906101000a900467ffffffffffffffff1667ffffffffffffffff164714611ce1576040517f08c379a00000000000000000000000000000000000000000000000000000000081526004018080602001828103825260308152602001806147af6030913960400191505060405180910390fd5b6000600f60149054906101000a900467ffffffffffffffff1667ffffffffffffffff1690506000600f60146101000a81548167ffffffffffffffff021916908367ffffffffffffffff1602179055506000600f60009054906101000a900473ffffffffffffffffffffffffffffffffffffffff1673ffffffffffffffffffffffffffffffffffffffff168260405180600001905060006040518083038185875af1925050503d8060008114611db2576040519150601f19603f3d011682016040523d82523d6000602084013e611db7565b606091505b5050905080611e11576040517f08c379a00000000000000000000000000000000000000000000000000000000081526004018080602001828103825260248152602001806145786024913960400191505060405180910390fd5b5050565b60116020528060005260406000206000915090508054600181600116156101000203166002900480601f016020809104026020016040519081016040528092919081815260200182805460018160011615610100020316600290048015611ebd5780601f10611e9257610100808354040283529160200191611ebd565b820191906000526020600020905b815481529060010190602001808311611ea057829003601f168201915b505050505081565b600080611edc83600261365b90919063ffffffff16565b50905080915050919050565b600e60009054906101000a900473ffffffffffffffffffffffffffffffffffffffff1681565b6000611f3e826040518060600160405280602981526020016147866029913960026136879092919063ffffffff16565b9050919050565b7f000000000000000000000000000000000000000000000000000000000000000081565b60106020528060005260406000206000915090505481565b606060098054600181600116156101000203166002900480601f0160208091040260200160405190810160405280929190818152602001828054600181600116156101000203166002900480156120195780601f10611fee57610100808354040283529160200191612019565b820191906000526020600020905b815481529060010190602001808311611ffc57829003601f168201915b5050505050905090565b60008073ffffffffffffffffffffffffffffffffffffffff168273ffffffffffffffffffffffffffffffffffffffff1614156120aa576040517f08c379a000000000000000000000000000000000000000000000000000000000815260040180806020018281038252602a81526020018061475c602a913960400191505060405180910390fd5b6120f1600160008473ffffffffffffffffffffffffffffffffffffffff1673ffffffffffffffffffffffffffffffffffffffff1681526020019081526020016000206136a6565b9050919050565b6121006130dc565b73ffffffffffffffffffffffffffffffffffffffff1661211e612268565b73ffffffffffffffffffffffffffffffffffffffff16146121a7576040517f08c379a00000000000000000000000000000000000000000000000000000000081526004018080602001828103825260208152602001807f4f776e61626c653a2063616c6c6572206973206e6f7420746865206f776e657281525060200191505060405180910390fd5b600073ffffffffffffffffffffffffffffffffffffffff16600a60009054906101000a900473ffffffffffffffffffffffffffffffffffffffff1673ffffffffffffffffffffffffffffffffffffffff167f8be0079c531659141344cd1fd0a4f28419497f9722a3daafe3b4186f6b6457e060405160405180910390a36000600a60006101000a81548173ffffffffffffffffffffffffffffffffffffffff021916908373ffffffffffffffffffffffffffffffffffffffff160217905550565b6000600a60009054906101000a900473ffffffffffffffffffffffffffffffffffffffff16905090565b606060078054600181600116156101000203166002900480601f01602080910402602001604051908101604052809291908181526020018280546001816001161561010002031660029004801561232a5780601f106122ff5761010080835404028352916020019161232a565b820191906000526020600020905b81548152906001019060200180831161230d57829003601f168201915b5050505050905090565b60126020528060005260406000206000915090508054600181600116156101000203166002900480601f0160208091040260200160405190810160405280929190818152602001828054600181600116156101000203166002900480156123dc5780601f106123b1576101008083540402835291602001916123dc565b820191906000526020600020905b8154815290600101906020018083116123bf57829003601f168201915b505050505081565b6123ec6130dc565b73ffffffffffffffffffffffffffffffffffffffff168273ffffffffffffffffffffffffffffffffffffffff16141561248d576040517f08c379a00000000000000000000000000000000000000000000000000000000081526004018080602001828103825260198152602001807f4552433732313a20617070726f766520746f2063616c6c65720000000000000081525060200191505060405180910390fd5b806005600061249a6130dc565b73ffffffffffffffffffffffffffffffffffffffff1673ffffffffffffffffffffffffffffffffffffffff16815260200190815260200160002060008473ffffffffffffffffffffffffffffffffffffffff1673ffffffffffffffffffffffffffffffffffffffff16815260200190815260200160002060006101000a81548160ff0219169083151502179055508173ffffffffffffffffffffffffffffffffffffffff166125476130dc565b73ffffffffffffffffffffffffffffffffffffffff167f17307eab39ab6107e8899845ad3d59bd9653f200f220920489ca2b5937696c318360405180821515815260200191505060405180910390a35050565b600c5481565b6125b16125ab6130dc565b836131b2565b612606576040517f08c379a000000000000000000000000000000000000000000000000000000000815260040180806020018281038252603181526020018061491d6031913960400191505060405180910390fd5b612612848484846136bb565b50505050565b604681565b600581565b606061262d826130bf565b612682576040517f08c379a000000000000000000000000000000000000000000000000000000000815260040180806020018281038252602c815260200180614648602c913960400191505060405180910390fd5b6000601060008481526020019081526020016000205490506000601160008381526020019081526020016000208054600181600116156101000203166002900480601f0160208091040260200160405190810160405280929190818152602001828054600181600116156101000203166002900480156127435780601f1061271857610100808354040283529160200191612743565b820191906000526020600020905b81548152906001019060200180831161272657829003601f168201915b505050505090506000601260008481526020019081526020016000208054600181600116156101000203166002900480601f0160208091040260200160405190810160405280929190818152602001828054600181600116156101000203166002900480156127f35780601f106127c8576101008083540402835291602001916127f3565b820191906000526020600020905b8154815290600101906020018083116127d657829003601f168201915b5050505050905061280261372d565b6129b061280d611124565b838560405160200180807f7b226e616d65223a22000000000000000000000000000000000000000000000081525060090184805190602001908083835b6020831061286d578051825260208201915060208101905060208303925061284a565b6001836020036101000a038019825116818451168082178552505050505050905001806149a3602791396027018061494e6031913960310183805190602001908083835b602083106128d457805182526020820191506020810190506020830392506128b1565b6001836020036101000a038019825116818451168082178552505050505050905001807f7d5d2c2022696d616765223a2200000000000000000000000000000000000000815250600d0182805190602001908083835b6020831061294d578051825260208201915060208101905060208303925061292a565b6001836020036101000a038019825116818451168082178552505050505050905001807f227d000000000000000000000000000000000000000000000000000000000000815250600201935050505060405160208183030381529060405261376a565b6040516020018083805190602001908083835b602083106129e657805182526020820191506020810190506020830392506129c3565b6001836020036101000a03801982511681845116808217855250505050505090500182805190602001908083835b60208310612a375780518252602082019150602081019050602083039250612a14565b6001836020036101000a038019825116818451168082178552505050505050905001925050506040516020818303038152906040529350505050919050565b601981565b600080600090505b600b80549050811015612b11578273ffffffffffffffffffffffffffffffffffffffff16600b8281548110612ab457fe5b9060005260206000200160009054906101000a900473ffffffffffffffffffffffffffffffffffffffff1673ffffffffffffffffffffffffffffffffffffffff161415612b045780915050612b17565b8080600101915050612a83565b50600090505b919050565b80517f0000000000000000000000000000000000000000000000000000000000000000023414612b97576040517f08c379a000000000000000000000000000000000000000000000000000000000815260040180806020018281038252602d81526020018061461b602d913960400191505060405180910390fd5b60005b8151811015612c2657600b828281518110612bb157fe5b60200260200101519080600181540180825580915050600190039060005260206000200160009091909190916101000a81548173ffffffffffffffffffffffffffffffffffffffff021916908373ffffffffffffffffffffffffffffffffffffffff1602179055508080600101915050612b9a565b5060005b6001600b8054905003811015612d7b5760006001820190505b600b80549050811015612d6d57600b8181548110612c5d57fe5b9060005260206000200160009054906101000a900473ffffffffffffffffffffffffffffffffffffffff1673ffffffffffffffffffffffffffffffffffffffff16600b8381548110612cab57fe5b9060005260206000200160009054906101000a900473ffffffffffffffffffffffffffffffffffffffff1673ffffffffffffffffffffffffffffffffffffffff161415612d60576040517f08c379a000000000000000000000000000000000000000000000000000000000815260040180806020018281038252601d8152602001807f5075707079526166666c653a204475706c696361746520706c6179657200000081525060200191505060405180910390fd5b8080600101915050612c43565b508080600101915050612c2a565b507fb1c4333d548c772fcf6cf94ff4113aa3d3efcdbedd89953b15a30752b94e3582816040518080602001828103825283818151815260200191508051906020019060200280838360005b83811015612de1578082015181840152602081019050612dc6565b505050509050019250505060405180910390a150565b6000600560008473ffffffffffffffffffffffffffffffffffffffff1673ffffffffffffffffffffffffffffffffffffffff16815260200190815260200160002060008373ffffffffffffffffffffffffffffffffffffffff1673ffffffffffffffffffffffffffffffffffffffff16815260200190815260200160002060009054906101000a900460ff16905092915050565b612e936130dc565b73ffffffffffffffffffffffffffffffffffffffff16612eb1612268565b73ffffffffffffffffffffffffffffffffffffffff1614612f3a576040517f08c379a00000000000000000000000000000000000000000000000000000000081526004018080602001828103825260208152602001807f4f776e61626c653a2063616c6c6572206973206e6f7420746865206f776e657281525060200191505060405180910390fd5b600073ffffffffffffffffffffffffffffffffffffffff168173ffffffffffffffffffffffffffffffffffffffff161415612fc0576040517f08c379a00000000000000000000000000000000000000000000000000000000081526004018080602001828103825260268152602001806145f56026913960400191505060405180910390fd5b8073ffffffffffffffffffffffffffffffffffffffff16600a60009054906101000a900473ffffffffffffffffffffffffffffffffffffffff1673ffffffffffffffffffffffffffffffffffffffff167f8be0079c531659141344cd1fd0a4f28419497f9722a3daafe3b4186f6b6457e060405160405180910390a380600a60006101000a81548173ffffffffffffffffffffffffffffffffffffffff021916908373ffffffffffffffffffffffffffffffffffffffff16021790555050565b600b818154811061309057600080fd5b906000526020600020016000915054906101000a900473ffffffffffffffffffffffffffffffffffffffff1681565b60006130d58260026138c490919063ffffffff16565b9050919050565b600033905090565b816004600083815260200190815260200160002060006101000a81548173ffffffffffffffffffffffffffffffffffffffff021916908373ffffffffffffffffffffffffffffffffffffffff160217905550808273ffffffffffffffffffffffffffffffffffffffff1661315783611f0e565b73ffffffffffffffffffffffffffffffffffffffff167f8c5be1e5ebec7d5bd14f71427d1e84f3dd0314c0f7b2291e5b200ac8c7c3b92560405160405180910390a45050565b60006131ab826000016138de565b9050919050565b60006131bd826130bf565b613212576040517f08c379a000000000000000000000000000000000000000000000000000000000815260040180806020018281038252602c8152602001806146f8602c913960400191505060405180910390fd5b600061321d83611f0e565b90508073ffffffffffffffffffffffffffffffffffffffff168473ffffffffffffffffffffffffffffffffffffffff16148061328c57508373ffffffffffffffffffffffffffffffffffffffff16613274846111c6565b73ffffffffffffffffffffffffffffffffffffffff16145b8061329d575061329c8185612df7565b5b91505092915050565b8273ffffffffffffffffffffffffffffffffffffffff166132c682611f0e565b73ffffffffffffffffffffffffffffffffffffffff1614613332576040517f08c379a00000000000000000000000000000000000000000000000000000000081526004018080602001828103825260298152602001806148a36029913960400191505060405180910390fd5b600073ffffffffffffffffffffffffffffffffffffffff168273ffffffffffffffffffffffffffffffffffffffff1614156133b8576040517f08c379a00000000000000000000000000000000000000000000000000000000081526004018080602001828103825260248152602001806146746024913960400191505060405180910390fd5b6133c38383836138ef565b6133ce6000826130e4565b61341f81600160008673ffffffffffffffffffffffffffffffffffffffff1673ffffffffffffffffffffffffffffffffffffffff1681526020019081526020016000206138f490919063ffffffff16565b5061347181600160008573ffffffffffffffffffffffffffffffffffffffff1673ffffffffffffffffffffffffffffffffffffffff16815260200190815260200160002061390e90919063ffffffff16565b50613488818360026139289092919063ffffffff16565b50808273ffffffffffffffffffffffffffffffffffffffff168473ffffffffffffffffffffffffffffffffffffffff167fddf252ad1be2c89b69c2b068fc378daa952ba7f163c4a11628f55a4df523b3ef60405160405180910390a4505050565b8047101561355f576040517f08c379a000000000000000000000000000000000000000000000000000000000815260040180806020018281038252601d8152602001807f416464726573733a20696e73756666696369656e742062616c616e636500000081525060200191505060405180910390fd5b60008273ffffffffffffffffffffffffffffffffffffffff168260405180600001905060006040518083038185875af1925050503d80600081146135bf576040519150601f19603f3d011682016040523d82523d6000602084013e6135c4565b606091505b505090508061361e576040517f08c379a000000000000000000000000000000000000000000000000000000000815260040180806020018281038252603a815260200180614698603a913960400191505060405180910390fd5b505050565b6000613632836000018361395d565b60001c905092915050565b6136578282604051806020016040528060008152506139e0565b5050565b60008060008061366e8660000186613a51565b915091508160001c8160001c9350935050509250929050565b600061369a846000018460001b84613aea565b60001c90509392505050565b60006136b482600001613be0565b9050919050565b6136c68484846132a6565b6136d284848484613bf1565b613727576040517f08c379a00000000000000000000000000000000000000000000000000000000081526004018080602001828103825260328152602001806145c36032913960400191505060405180910390fd5b50505050565b60606040518060400160405280601d81526020017f646174613a6170706c69636174696f6e2f6a736f6e3b6261736536342c000000815250905090565b606060008251141561378d576040518060200160405280600081525090506138bf565b60006040518060600160405280604081526020016147df604091399050600060036002855101816137ba57fe5b04600402905060006020820167ffffffffffffffff811180156137dc57600080fd5b506040519080825280601f01601f19166020018201604052801561380f5781602001600182028036833780820191505090505b509050818152600183018586518101602084015b8183101561387e576003830192508251603f8160121c168501518253600182019150603f81600c1c168501518253600182019150603f8160061c168501518253600182019150603f8116850151825360018201915050613823565b60038951066001811461389857600281146138a8576138b3565b613d3d60f01b60028303526138b3565b603d60f81b60018303525b50505050508093505050505b919050565b60006138d6836000018360001b613e0a565b905092915050565b600081600001805490509050919050565b505050565b6000613906836000018360001b613e2d565b905092915050565b6000613920836000018360001b613f15565b905092915050565b6000613954846000018460001b8473ffffffffffffffffffffffffffffffffffffffff1660001b613f85565b90509392505050565b6000818360000180549050116139be576040517f08c379a00000000000000000000000000000000000000000000000000000000081526004018080602001828103825260228152602001806145566022913960400191505060405180910390fd5b8260000182815481106139cd57fe5b9060005260206000200154905092915050565b6139ea8383614061565b6139f76000848484613bf1565b613a4c576040517f08c379a00000000000000000000000000000000000000000000000000000000081526004018080602001828103825260328152602001806145c36032913960400191505060405180910390fd5b505050565b60008082846000018054905011613ab3576040517f08c379a000000000000000000000000000000000000000000000000000000000815260040180806020018281038252602281526020018061481f6022913960400191505060405180910390fd5b6000846000018481548110613ac457fe5b906000526020600020906002020190508060000154816001015492509250509250929050565b60008084600101600085815260200190815260200160002054905060008114158390613bb1576040517f08c379a00000000000000000000000000000000000000000000000000000000081526004018080602001828103825283818151815260200191508051906020019080838360005b83811015613b76578082015181840152602081019050613b5b565b50505050905090810190601f168015613ba35780820380516001836020036101000a031916815260200191505b509250505060405180910390fd5b50846000016001820381548110613bc457fe5b9060005260206000209060020201600101549150509392505050565b600081600001805490509050919050565b6000613c128473ffffffffffffffffffffffffffffffffffffffff16614255565b613c1f5760019050613e02565b6000613d8963150b7a0260e01b613c346130dc565b888787604051602401808573ffffffffffffffffffffffffffffffffffffffff1681526020018473ffffffffffffffffffffffffffffffffffffffff16815260200183815260200180602001828103825283818151815260200191508051906020019080838360005b83811015613cb8578082015181840152602081019050613c9d565b50505050905090810190601f168015613ce55780820380516001836020036101000a031916815260200191505b5095505050505050604051602081830303815290604052907bffffffffffffffffffffffffffffffffffffffffffffffffffffffff19166020820180517bffffffffffffffffffffffffffffffffffffffffffffffffffffffff83818316178352505050506040518060600160405280603281526020016145c3603291398773ffffffffffffffffffffffffffffffffffffffff166142689092919063ffffffff16565b90506000818060200190516020811015613da257600080fd5b8101908080519060200190929190505050905063150b7a0260e01b7bffffffffffffffffffffffffffffffffffffffffffffffffffffffff1916817bffffffffffffffffffffffffffffffffffffffffffffffffffffffff191614925050505b949350505050565b600080836001016000848152602001908152602001600020541415905092915050565b60008083600101600084815260200190815260200160002054905060008114613f095760006001820390506000600186600001805490500390506000866000018281548110613e7857fe5b9060005260206000200154905080876000018481548110613e9557fe5b9060005260206000200181905550600183018760010160008381526020019081526020016000208190555086600001805480613ecd57fe5b60019003818190600052602060002001600090559055866001016000878152602001908152602001600020600090556001945050505050613f0f565b60009150505b92915050565b6000613f218383614280565b613f7a578260000182908060018154018082558091505060019003906000526020600020016000909190919091505582600001805490508360010160008481526020019081526020016000208190555060019050613f7f565b600090505b92915050565b600080846001016000858152602001908152602001600020549050600081141561402c5784600001604051806040016040528086815260200185815250908060018154018082558091505060019003906000526020600020906002020160009091909190915060008201518160000155602082015181600101555050846000018054905085600101600086815260200190815260200160002081905550600191505061405a565b8285600001600183038154811061403f57fe5b90600052602060002090600202016001018190555060009150505b9392505050565b600073ffffffffffffffffffffffffffffffffffffffff168273ffffffffffffffffffffffffffffffffffffffff161415614104576040517f08c379a00000000000000000000000000000000000000000000000000000000081526004018080602001828103825260208152602001807f4552433732313a206d696e7420746f20746865207a65726f206164647265737381525060200191505060405180910390fd5b61410d816130bf565b15614180576040517f08c379a000000000000000000000000000000000000000000000000000000000815260040180806020018281038252601c8152602001807f4552433732313a20746f6b656e20616c7265616479206d696e7465640000000081525060200191505060405180910390fd5b61418c600083836138ef565b6141dd81600160008573ffffffffffffffffffffffffffffffffffffffff1673ffffffffffffffffffffffffffffffffffffffff16815260200190815260200160002061390e90919063ffffffff16565b506141f4818360026139289092919063ffffffff16565b50808273ffffffffffffffffffffffffffffffffffffffff16600073ffffffffffffffffffffffffffffffffffffffff167fddf252ad1be2c89b69c2b068fc378daa952ba7f163c4a11628f55a4df523b3ef60405160405180910390a45050565b600080823b905060008111915050919050565b606061427784846000856142a3565b90509392505050565b600080836001016000848152602001908152602001600020541415905092915050565b6060824710156142fe576040517f08c379a00000000000000000000000000000000000000000000000000000000081526004018080602001828103825260268152602001806146d26026913960400191505060405180910390fd5b61430785614255565b614379576040517f08c379a000000000000000000000000000000000000000000000000000000000815260040180806020018281038252601d8152602001807f416464726573733a2063616c6c20746f206e6f6e2d636f6e747261637400000081525060200191505060405180910390fd5b6000808673ffffffffffffffffffffffffffffffffffffffff1685876040518082805190602001908083835b602083106143c857805182526020820191506020810190506020830392506143a5565b6001836020036101000a03801982511681845116808217855250505050505090500191505060006040518083038185875af1925050503d806000811461442a576040519150601f19603f3d011682016040523d82523d6000602084013e61442f565b606091505b509150915061443f82828661444b565b92505050949350505050565b6060831561445b57829050614510565b60008351111561446e5782518084602001fd5b816040517f08c379a00000000000000000000000000000000000000000000000000000000081526004018080602001828103825283818151815260200191508051906020019080838360005b838110156144d55780820151818401526020810190506144ba565b50505050905090810190601f1680156145025780820380516001836020036101000a031916815260200191505b509250505060405180910390fd5b9392505050565b50805460008255906000526020600020908101906145359190614538565b50565b5b80821115614551576000816000905550600101614539565b509056fe456e756d657261626c655365743a20696e646578206f7574206f6620626f756e64735075707079526166666c653a204661696c656420746f20776974686472617720666565735075707079526166666c653a204f6e6c792074686520706c617965722063616e20726566756e644552433732313a207472616e7366657220746f206e6f6e20455243373231526563656976657220696d706c656d656e7465724f776e61626c653a206e6577206f776e657220697320746865207a65726f20616464726573735075707079526166666c653a204d7573742073656e6420656e6f75676820746f20656e74657220726166666c655075707079526166666c653a2055524920717565727920666f72206e6f6e6578697374656e7420746f6b656e4552433732313a207472616e7366657220746f20746865207a65726f2061646472657373416464726573733a20756e61626c6520746f2073656e642076616c75652c20726563697069656e74206d61792068617665207265766572746564416464726573733a20696e73756666696369656e742062616c616e636520666f722063616c6c4552433732313a206f70657261746f7220717565727920666f72206e6f6e6578697374656e7420746f6b656e4552433732313a20617070726f76652063616c6c6572206973206e6f74206f776e6572206e6f7220617070726f76656420666f7220616c6c4552433732313a2062616c616e636520717565727920666f7220746865207a65726f20616464726573734552433732313a206f776e657220717565727920666f72206e6f6e6578697374656e7420746f6b656e5075707079526166666c653a205468657265206172652063757272656e746c7920706c617965727320616374697665214142434445464748494a4b4c4d4e4f505152535455565758595a6162636465666768696a6b6c6d6e6f707172737475767778797a303132333435363738392b2f456e756d657261626c654d61703a20696e646578206f7574206f6620626f756e64734552433732313a20617070726f76656420717565727920666f72206e6f6e6578697374656e7420746f6b656e5075707079526166666c653a20506c6179657220616c726561647920726566756e6465642c206f72206973206e6f74206163746976654552433732313a207472616e73666572206f6620746f6b656e2074686174206973206e6f74206f776e4552433732313a20617070726f76616c20746f2063757272656e74206f776e65725075707079526166666c653a204661696c656420746f2073656e64207072697a6520706f6f6c20746f2077696e6e65724552433732313a207472616e736665722063616c6c6572206973206e6f74206f776e6572206e6f7220617070726f7665642261747472696275746573223a205b7b2274726169745f74797065223a2022726172697479222c202276616c7565223a205075707079526166666c653a204e656564206174206c65617374203420706c6179657273222c20226465736372697074696f6e223a22416e2061646f7261626c6520707570707921222c20a26469706673582212209912c674697a20c5f2826ce69ac1e18df30fad178d602df4a5227361adbd3f1464736f6c63430007060033697066733a2f2f516d597836477359414b6e4e7a5a3941364e76454b56396e66315661447a4a727144523233593859536b65624c55697066733a2f2f516d5373595278334c7044416231475a516d377a5a314175485a6a6662506b44364a3773397234317875316d6638697066733a2f2f516d55506a41444647454b6d666f686454614e635768703756476b323668356a5844413776335674546e544c6357","linkReferences":{}},"methodIdentifiers":{"COMMON_RARITY()":"bd71a521","LEGENDARY_RARITY()":"bd7c40c7","RARE_RARITY()":"db2c0b91","approve(address,uint256)":"095ea7b3","balanceOf(address)":"70a08231","baseURI()":"6c0360eb","changeFeeAddress(address)":"285e1406","enterRaffle(address[])":"e1a0f7e7","entranceFee()":"649677e1","feeAddress()":"41275358","getActivePlayerIndex(address)":"db2cea75","getApproved(uint256)":"081812fc","isApprovedForAll(address,address)":"e985e9c5","name()":"06fdde03","owner()":"8da5cb5b","ownerOf(uint256)":"6352211e","players(uint256)":"f71d96cb","previousWinner()":"5c6059ee","raffleDuration()":"b2f8846b","raffleStartTime()":"3be539ee","rarityToName(uint256)":"970c76e1","rarityToUri(uint256)":"4a038beb","refund(uint256)":"278ecde1","renounceOwnership()":"715018a6","safeTransferFrom(address,address,uint256)":"42842e0e","safeTransferFrom(address,address,uint256,bytes)":"b88d4fde","selectWinner()":"33a99e04","setApprovalForAll(address,bool)":"a22cb465","supportsInterface(bytes4)":"01ffc9a7","symbol()":"95d89b41","tokenByIndex(uint256)":"4f6ccce7","tokenIdToRarity(uint256)":"6be88980","tokenOfOwnerByIndex(address,uint256)":"2f745c59","tokenURI(uint256)":"c87b56dd","totalFees()":"13114a9d","totalSupply()":"18160ddd","transferFrom(address,address,uint256)":"23b872dd","transferOwnership(address)":"f2fde38b","withdrawFees()":"476343ee"},"id":30}